{
  "transactions": [
    {
      "hash": "0x4f844cd4e3ab3ae49ca06a866b37be73fcea82b9e0dddbf423d056373128f069",
      "transactionType": "CALL",
      "contractName": null,
      "contractAddress": "0xbfd73814679cc3f7dd84a2c719adeb498b7b45cd",
      "function": "approve(address,uint256)",
      "arguments": [
        "0xa978c3BcaFA79058e408a65Ea5dfb7F3B800d0F8",
        "2000000000000000000"
      ],
      "transaction": {
        "from": "0xba4d2018154ac73bd7a0884822e2df227a0fe6ac",
        "to": "0xbfd73814679cc3f7dd84a2c719adeb498b7b45cd",
        "gas": "0xfd22",
        "value": "0x0",
        "input": "0x095ea7b3000000000000000000000000a978c3bcafa79058e408a65ea5dfb7f3b800d0f80000000000000000000000000000000000000000000000001bc16d674ec80000",
        "nonce": "0x1a",
        "chainId": "0xaa36a7"
      },
      "additionalContracts": [],
      "isFixedGasLimit": false
    },
    {
      "hash": "0xb4d61392e9f8bcc4b3cf18c512d2bcdccca5bc1a73f3e98817de0363168887c7",
      "transactionType": "CALL",
      "contractName": null,
      "contractAddress": "0xa978c3bcafa79058e408a65ea5dfb7f3b800d0f8",
      "function": "drop(address,uint256)",
      "arguments": [
        "0xBFD73814679cC3F7dd84A2C719ADeb498B7B45cd",
        "2000000000000000000"
      ],
      "transaction": {
        "from": "0xba4d2018154ac73bd7a0884822e2df227a0fe6ac",
        "to": "0xa978c3bcafa79058e408a65ea5dfb7f3b800d0f8",
        "gas": "0x14e8f",
        "value": "0x0",
        "input": "0x8d0f8cef000000000000000000000000bfd73814679cc3f7dd84a2c719adeb498b7b45cd0000000000000000000000000000000000000000000000001bc16d674ec80000",
        "nonce": "0x1b",
        "chainId": "0xaa36a7"
      },
      "additionalContracts": [],
      "isFixedGasLimit": false
    }
  ],
  "receipts": [
    {
      "status": "0x1",
      "cumulativeGasUsed": "0xfd981a",
      "logs": [
        {
          "address": "0xbfd73814679cc3f7dd84a2c719adeb498b7b45cd",
          "topics": [
            "0x8c5be1e5ebec7d5bd14f71427d1e84f3dd0314c0f7b2291e5b200ac8c7c3b925",
            "0x000000000000000000000000ba4d2018154ac73bd7a0884822e2df227a0fe6ac",
            "0x000000000000000000000000a978c3bcafa79058e408a65ea5dfb7f3b800d0f8"
          ],
          "data": "0x0000000000000000000000000000000000000000000000001bc16d674ec80000",
          "blockHash": "0x74e0465cd14692a3feb62366f8126eba0e7dabd89238d0a2577fea8d87d9a5b2",
          "blockNumber": "0x7d48b1",
          "blockTimestamp": "0x680f0448",
          "transactionHash": "0x4f844cd4e3ab3ae49ca06a866b37be73fcea82b9e0dddbf423d056373128f069",
          "transactionIndex": "0x65",
          "logIndex": "0x13f",
          "removed": false
        }
      ],
      "logsBloom": "0x00000050000000000000000000000000010000000000000000000000000000000004000000000000000000000000000000000000000000000000000800200000000000000000000000000000000000000000000000000000000000000000002000000000000000000000000000000000000000000000000000000000000000000000000000000000000000002000000000000000000000000000000000000000020000000000000000000000000000000000000000000000000000000000000010000000000000000000000000000000000000000800000000000000000000000010000000000000000000000000000000000000000000000000000000000000",
      "type": "0x2",
      "transactionHash": "0x4f844cd4e3ab3ae49ca06a866b37be73fcea82b9e0dddbf423d056373128f069",
      "transactionIndex": "0x65",
      "blockHash": "0x74e0465cd14692a3feb62366f8126eba0e7dabd89238d0a2577fea8d87d9a5b2",
      "blockNumber": "0x7d48b1",
      "gasUsed": "0xb744",
      "effectiveGasPrice": "0xb40c794c9",
      "from": "0xba4d2018154ac73bd7a0884822e2df227a0fe6ac",
      "to": "0xbfd73814679cc3f7dd84a2c719adeb498b7b45cd",
      "contractAddress": null
    },
    {
      "status": "0x1",
      "cumulativeGasUsed": "0xfe7cdd",
      "logs": [
        {
          "address": "0xbfd73814679cc3f7dd84a2c719adeb498b7b45cd",
          "topics": [
            "0xddf252ad1be2c89b69c2b068fc378daa952ba7f163c4a11628f55a4df523b3ef",
            "0x000000000000000000000000ba4d2018154ac73bd7a0884822e2df227a0fe6ac",
            "0x000000000000000000000000a978c3bcafa79058e408a65ea5dfb7f3b800d0f8"
          ],
          "data": "0x0000000000000000000000000000000000000000000000001bc16d674ec80000",
          "blockHash": "0x74e0465cd14692a3feb62366f8126eba0e7dabd89238d0a2577fea8d87d9a5b2",
          "blockNumber": "0x7d48b1",
          "blockTimestamp": "0x680f0448",
          "transactionHash": "0xb4d61392e9f8bcc4b3cf18c512d2bcdccca5bc1a73f3e98817de0363168887c7",
          "transactionIndex": "0x66",
          "logIndex": "0x140",
          "removed": false
        },
        {
          "address": "0xa978c3bcafa79058e408a65ea5dfb7f3b800d0f8",
          "topics": [
            "0x745c90b656b4aafe296c8ca35aeacfe56cb96c90e1d320e5da643fff1051b6c0"
          ],
          "data": "0x000000000000000000000000ba4d2018154ac73bd7a0884822e2df227a0fe6ac",
          "blockHash": "0x74e0465cd14692a3feb62366f8126eba0e7dabd89238d0a2577fea8d87d9a5b2",
          "blockNumber": "0x7d48b1",
          "blockTimestamp": "0x680f0448",
          "transactionHash": "0xb4d61392e9f8bcc4b3cf18c512d2bcdccca5bc1a73f3e98817de0363168887c7",
          "transactionIndex": "0x66",
          "logIndex": "0x141",
          "removed": false
        }
      ],
      "logsBloom": "0x00000050400000000000000000000000010000000000000000000000000002000004000000000000000000000000000000000000000000000000000800000000400000000000000000000008000000000000000000000004000000000000002000000000000000000000000000000000000000000000000000000010000000000000000000000000000000002000000000000000000000000000000000000000000000000000000000000000000000000000000000000000000000000000000010000002000000000000000000000000000000000800000000000000000000200000000000000000000000000000000000080000000000000000000000000000",
      "type": "0x2",
      "transactionHash": "0xb4d61392e9f8bcc4b3cf18c512d2bcdccca5bc1a73f3e98817de0363168887c7",
      "transactionIndex": "0x66",
      "blockHash": "0x74e0465cd14692a3feb62366f8126eba0e7dabd89238d0a2577fea8d87d9a5b2",
      "blockNumber": "0x7d48b1",
      "gasUsed": "0xe4c3",
      "effectiveGasPrice": "0xb40c794c9",
      "from": "0xba4d2018154ac73bd7a0884822e2df227a0fe6ac",
      "to": "0xa978c3bcafa79058e408a65ea5dfb7f3b800d0f8",
      "contractAddress": null
    }
  ],
  "libraries": [],
  "pending": [],
  "returns": {},
  "timestamp": 1745814602,
  "chain": 11155111,
  "commit": "18d196e"
}