{
  "transactions": [
    {
      "hash": "0x4498bc50e53e5e409af32f94c4d9f09d87d4008c2ebbcbe2826e7b8604196145",
      "transactionType": "CALL",
      "contractName": null,
      "contractAddress": "0xbfd73814679cc3f7dd84a2c719adeb498b7b45cd",
      "function": "transfer(address,uint256)",
      "arguments": [
        "0x70997970C51812dc3A010C7d01b50e0d17dc79C8",
        "1000000000000000000"
      ],
      "transaction": {
        "from": "0xba4d2018154ac73bd7a0884822e2df227a0fe6ac",
        "to": "0xbfd73814679cc3f7dd84a2c719adeb498b7b45cd",
        "gas": "0x12a14",
        "value": "0x0",
        "input": "0xa9059cbb00000000000000000000000070997970c51812dc3a010c7d01b50e0d17dc79c80000000000000000000000000000000000000000000000000de0b6b3a7640000",
        "nonce": "0x18",
        "chainId": "0xaa36a7"
      },
      "additionalContracts": [],
      "isFixedGasLimit": false
    }
  ],
  "receipts": [
    {
      "status": "0x1",
      "cumulativeGasUsed": "0x942066",
      "logs": [
        {
          "address": "0xbfd73814679cc3f7dd84a2c719adeb498b7b45cd",
          "topics": [
            "0xddf252ad1be2c89b69c2b068fc378daa952ba7f163c4a11628f55a4df523b3ef",
            "0x000000000000000000000000ba4d2018154ac73bd7a0884822e2df227a0fe6ac",
            "0x00000000000000000000000070997970c51812dc3a010c7d01b50e0d17dc79c8"
          ],
          "data": "0x0000000000000000000000000000000000000000000000000de0b6b3a7640000",
          "blockHash": "0xd659198e1d55f52544b51d436ab49409d1bfb3a4478a96256c8fe19a6f9b82e6",
          "blockNumber": "0x7d387f",
          "blockTimestamp": "0x680e34b8",
          "transactionHash": "0x4498bc50e53e5e409af32f94c4d9f09d87d4008c2ebbcbe2826e7b8604196145",
          "transactionIndex": "0x59",
          "logIndex": "0xe9",
          "removed": false
        }
      ],
      "logsBloom": "0x00000050000000000002000000000000010000000000000000000000000000000004000000000000000000000000000000000000000000000000000800000000000000000000000000000008000000000000000000000000000000000000000000000800000000000000000000000000000000000000000000000010000000000000000000000000000000000000000000000000000000000000000000000000000000000000000000000000000000000000000000000000000000000000000010000002000000000000000000000000000000000000000000000000000000000000000000000000000000000000000001000000000000000000000000000000",
      "type": "0x2",
      "transactionHash": "0x4498bc50e53e5e409af32f94c4d9f09d87d4008c2ebbcbe2826e7b8604196145",
      "transactionIndex": "0x59",
      "blockHash": "0xd659198e1d55f52544b51d436ab49409d1bfb3a4478a96256c8fe19a6f9b82e6",
      "blockNumber": "0x7d387f",
      "gasUsed": "0xcbd1",
      "effectiveGasPrice": "0x1465b867e",
      "from": "0xba4d2018154ac73bd7a0884822e2df227a0fe6ac",
      "to": "0xbfd73814679cc3f7dd84a2c719adeb498b7b45cd",
      "contractAddress": null
    }
  ],
  "libraries": [],
  "pending": [],
  "returns": {},
  "timestamp": 1745761466,
  "chain": 11155111,
  "commit": "bc4a1a9"
}